{
  "contractName": "HTLC",
  "abi": [
    {
      "inputs": [
        {
          "internalType": "address",
          "name": "_recipient",
          "type": "address"
        },
        {
          "internalType": "address",
          "name": "_token",
          "type": "address"
        },
        {
          "internalType": "uint256",
          "name": "_amount",
          "type": "uint256"
        }
      ],
      "stateMutability": "nonpayable",
      "type": "constructor"
    },
    {
      "inputs": [],
      "name": "amount",
      "outputs": [
        {
          "internalType": "uint256",
          "name": "",
          "type": "uint256"
        }
      ],
      "stateMutability": "view",
      "type": "function",
      "constant": true
    },
    {
      "inputs": [],
      "name": "hash",
      "outputs": [
        {
          "internalType": "bytes32",
          "name": "",
          "type": "bytes32"
        }
      ],
      "stateMutability": "view",
      "type": "function",
      "constant": true
    },
    {
      "inputs": [],
      "name": "lockTime",
      "outputs": [
        {
          "internalType": "uint256",
          "name": "",
          "type": "uint256"
        }
      ],
      "stateMutability": "view",
      "type": "function",
      "constant": true
    },
    {
      "inputs": [],
      "name": "owner",
      "outputs": [
        {
          "internalType": "address",
          "name": "",
          "type": "address"
        }
      ],
      "stateMutability": "view",
      "type": "function",
      "constant": true
    },
    {
      "inputs": [],
      "name": "recipient",
      "outputs": [
        {
          "internalType": "address",
          "name": "",
          "type": "address"
        }
      ],
      "stateMutability": "view",
      "type": "function",
      "constant": true
    },
    {
      "inputs": [],
      "name": "secret",
      "outputs": [
        {
          "internalType": "string",
          "name": "",
          "type": "string"
        }
      ],
      "stateMutability": "view",
      "type": "function",
      "constant": true
    },
    {
      "inputs": [],
      "name": "startTime",
      "outputs": [
        {
          "internalType": "uint256",
          "name": "",
          "type": "uint256"
        }
      ],
      "stateMutability": "view",
      "type": "function",
      "constant": true
    },
    {
      "inputs": [],
      "name": "token",
      "outputs": [
        {
          "internalType": "contract IERC20",
          "name": "",
          "type": "address"
        }
      ],
      "stateMutability": "view",
      "type": "function",
      "constant": true
    },
    {
      "inputs": [],
      "name": "fund",
      "outputs": [],
      "stateMutability": "nonpayable",
      "type": "function"
    },
    {
      "inputs": [
        {
          "internalType": "string",
          "name": "_secret",
          "type": "string"
        }
      ],
      "name": "withdraw",
      "outputs": [],
      "stateMutability": "nonpayable",
      "type": "function"
    },
    {
      "inputs": [],
      "name": "refund",
      "outputs": [],
      "stateMutability": "nonpayable",
      "type": "function"
    }
  ],
  "bytecode": "0x60806040526127106001557ffd69353b27210d2567bc0ade61674bbc3fc01a558a61c2a0cb2b13d96f9387cd60001b6003553480156200003e57600080fd5b5060405162000f0738038062000f07833981810160405281019062000064919062000165565b82600460006101000a81548173ffffffffffffffffffffffffffffffffffffffff021916908373ffffffffffffffffffffffffffffffffffffffff16021790555033600560006101000a81548173ffffffffffffffffffffffffffffffffffffffff021916908373ffffffffffffffffffffffffffffffffffffffff1602179055508060068190555081600760006101000a81548173ffffffffffffffffffffffffffffffffffffffff021916908373ffffffffffffffffffffffffffffffffffffffff1602179055505050506200022d565b6000815190506200014881620001f9565b92915050565b6000815190506200015f8162000213565b92915050565b6000806000606084860312156200017b57600080fd5b60006200018b8682870162000137565b93505060206200019e8682870162000137565b9250506040620001b1868287016200014e565b9150509250925092565b6000620001c882620001cf565b9050919050565b600073ffffffffffffffffffffffffffffffffffffffff82169050919050565b6000819050919050565b6200020481620001bb565b81146200021057600080fd5b50565b6200021e81620001ef565b81146200022a57600080fd5b50565b610cca806200023d6000396000f3fe608060405234801561001057600080fd5b50600436106100a95760003560e01c806378e979251161007157806378e979251461012e5780638da5cb5b1461014c578063aa8c217c1461016a578063b60d428814610188578063d1efd30d14610192578063fc0c546a146101b0576100a9565b806309bd5a60146100ae5780630d668087146100cc57806331fb67c2146100ea578063590e1ae31461010657806366d003ac14610110575b600080fd5b6100b66101ce565b6040516100c39190610964565b60405180910390f35b6100d46101d4565b6040516100e191906109fc565b60405180910390f35b61010460048036038101906100ff919061076b565b6101da565b005b61010e610332565b005b610118610459565b60405161012591906108e9565b60405180910390f35b61013661047f565b60405161014391906109fc565b60405180910390f35b610154610485565b60405161016191906108e9565b60405180910390f35b6101726104ab565b60405161017f91906109fc565b60405180910390f35b6101906104b1565b005b61019a61056e565b6040516101a7919061099a565b60405180910390f35b6101b86105fc565b6040516101c5919061097f565b60405180910390f35b60035481565b60015481565b600354816040516020016101ee91906108d2565b6040516020818303038152906040528051906020012014610244576040517f08c379a000000000000000000000000000000000000000000000000000000000815260040161023b906109bc565b60405180910390fd5b806002908051906020019061025a929190610622565b50600760009054906101000a900473ffffffffffffffffffffffffffffffffffffffff1673ffffffffffffffffffffffffffffffffffffffff1663a9059cbb600460009054906101000a900473ffffffffffffffffffffffffffffffffffffffff166006546040518363ffffffff1660e01b81526004016102dc92919061093b565b602060405180830381600087803b1580156102f657600080fd5b505af115801561030a573d6000803e3d6000fd5b505050506040513d601f19601f8201168201806040525081019061032e9190610742565b5050565b6001546000546103429190610a9f565b4211610383576040517f08c379a000000000000000000000000000000000000000000000000000000000815260040161037a906109dc565b60405180910390fd5b600760009054906101000a900473ffffffffffffffffffffffffffffffffffffffff1673ffffffffffffffffffffffffffffffffffffffff1663a9059cbb600560009054906101000a900473ffffffffffffffffffffffffffffffffffffffff166006546040518363ffffffff1660e01b815260040161040492919061093b565b602060405180830381600087803b15801561041e57600080fd5b505af1158015610432573d6000803e3d6000fd5b505050506040513d601f19601f820116820180604052508101906104569190610742565b50565b600460009054906101000a900473ffffffffffffffffffffffffffffffffffffffff1681565b60005481565b600560009054906101000a900473ffffffffffffffffffffffffffffffffffffffff1681565b60065481565b42600081905550600760009054906101000a900473ffffffffffffffffffffffffffffffffffffffff1673ffffffffffffffffffffffffffffffffffffffff166323b872dd33306006546040518463ffffffff1660e01b815260040161051993929190610904565b602060405180830381600087803b15801561053357600080fd5b505af1158015610547573d6000803e3d6000fd5b505050506040513d601f19601f8201168201806040525081019061056b9190610742565b50565b6002805461057b90610bad565b80601f01602080910402602001604051908101604052809291908181526020018280546105a790610bad565b80156105f45780601f106105c9576101008083540402835291602001916105f4565b820191906000526020600020905b8154815290600101906020018083116105d757829003601f168201915b505050505081565b600760009054906101000a900473ffffffffffffffffffffffffffffffffffffffff1681565b82805461062e90610bad565b90600052602060002090601f0160209004810192826106505760008555610697565b82601f1061066957805160ff1916838001178555610697565b82800160010185558215610697579182015b8281111561069657825182559160200191906001019061067b565b5b5090506106a491906106a8565b5090565b5b808211156106c15760008160009055506001016106a9565b5090565b60006106d86106d384610a48565b610a17565b9050828152602081018484840111156106f057600080fd5b6106fb848285610b6b565b509392505050565b60008151905061071281610c7d565b92915050565b600082601f83011261072957600080fd5b81356107398482602086016106c5565b91505092915050565b60006020828403121561075457600080fd5b600061076284828501610703565b91505092915050565b60006020828403121561077d57600080fd5b600082013567ffffffffffffffff81111561079757600080fd5b6107a384828501610718565b91505092915050565b6107b581610af5565b82525050565b6107c481610b13565b82525050565b6107d381610b47565b82525050565b60006107e482610a78565b6107ee8185610a83565b93506107fe818560208601610b7a565b61080781610c6c565b840191505092915050565b600061081d82610a78565b6108278185610a94565b9350610837818560208601610b7a565b80840191505092915050565b6000610850600c83610a83565b91507f77726f6e672073656372657400000000000000000000000000000000000000006000830152602082019050919050565b6000610890600983610a83565b91507f746f6f206561726c7900000000000000000000000000000000000000000000006000830152602082019050919050565b6108cc81610b3d565b82525050565b60006108de8284610812565b915081905092915050565b60006020820190506108fe60008301846107ac565b92915050565b600060608201905061091960008301866107ac565b61092660208301856107ac565b61093360408301846108c3565b949350505050565b600060408201905061095060008301856107ac565b61095d60208301846108c3565b9392505050565b600060208201905061097960008301846107bb565b92915050565b600060208201905061099460008301846107ca565b92915050565b600060208201905081810360008301526109b481846107d9565b905092915050565b600060208201905081810360008301526109d581610843565b9050919050565b600060208201905081810360008301526109f581610883565b9050919050565b6000602082019050610a1160008301846108c3565b92915050565b6000604051905081810181811067ffffffffffffffff82111715610a3e57610a3d610c3d565b5b8060405250919050565b600067ffffffffffffffff821115610a6357610a62610c3d565b5b601f19601f8301169050602081019050919050565b600081519050919050565b600082825260208201905092915050565b600081905092915050565b6000610aaa82610b3d565b9150610ab583610b3d565b9250827fffffffffffffffffffffffffffffffffffffffffffffffffffffffffffffffff03821115610aea57610ae9610bdf565b5b828201905092915050565b6000610b0082610b1d565b9050919050565b60008115159050919050565b6000819050919050565b600073ffffffffffffffffffffffffffffffffffffffff82169050919050565b6000819050919050565b6000610b5282610b59565b9050919050565b6000610b6482610b1d565b9050919050565b82818337600083830152505050565b60005b83811015610b98578082015181840152602081019050610b7d565b83811115610ba7576000848401525b50505050565b60006002820490506001821680610bc557607f821691505b60208210811415610bd957610bd8610c0e565b5b50919050565b7f4e487b7100000000000000000000000000000000000000000000000000000000600052601160045260246000fd5b7f4e487b7100000000000000000000000000000000000000000000000000000000600052602260045260246000fd5b7f4e487b7100000000000000000000000000000000000000000000000000000000600052604160045260246000fd5b6000601f19601f8301169050919050565b610c8681610b07565b8114610c9157600080fd5b5056fea26469706673582212208fea88bedc5542176ca7bb1858f8f725f0beabbbac59095dc7033c5b92e2124164736f6c63430008000033",
  "immutableReferences": {},
  "source": "// SPDX-License-Identifier: MIT\r\npragma solidity ^0.8.0; \r\n\r\nimport '../node_modules/@openzeppelin/contracts/token/ERC20/ERC20.sol';\r\n\r\ncontract HTLC {\r\n  uint public startTime;\r\n  uint public lockTime = 10000 seconds;\r\n  string public secret; //abracadabra \r\n  bytes32 public hash = 0xfd69353b27210d2567bc0ade61674bbc3fc01a558a61c2a0cb2b13d96f9387cd;\r\n  address public recipient;\r\n  address public owner; \r\n  uint public amount; \r\n  IERC20 public token;\r\n\r\n  constructor(address _recipient, address _token, uint _amount) { \r\n    recipient = _recipient;\r\n    owner = msg.sender; \r\n    amount = _amount;\r\n    token = IERC20(_token);\r\n  } \r\n\r\n  function fund() external {\r\n    startTime = block.timestamp;\r\n    token.transferFrom(msg.sender, address(this), amount);\r\n  }\r\n\r\n  function withdraw(string memory _secret) external { \r\n    require(keccak256(abi.encodePacked(_secret)) == hash, 'wrong secret');\r\n    secret = _secret; \r\n    token.transfer(recipient, amount); \r\n  } \r\n\r\n  function refund() external { \r\n    require(block.timestamp > startTime + lockTime, 'too early');\r\n    token.transfer(owner, amount); \r\n  } \r\n}\r\n",
  "sourcePath": "C:\\GitHub\\251-atomic-swap-ethereum-bsc\\contracts\\HTLC.sol",
  "compiler": {
    "name": "solc",
    "version": "0.8.0+commit.c7dfd78e.Emscripten.clang"
  },
  "schemaVersion": "3.4.16",
  "updatedAt": "2024-01-31T17:46:31.301Z",
  "networkType": "ethereum",
  "devdoc": {
    "kind": "dev",
    "methods": {},
    "version": 1
  },
  "userdoc": {
    "kind": "user",
    "methods": {},
    "version": 1
  }
}