{
  "contractName": "Notary",
  "abi": [
    {
      "inputs": [],
      "stateMutability": "nonpayable",
      "type": "constructor"
    },
    {
      "inputs": [],
      "name": "accountNotary",
      "outputs": [
        {
          "internalType": "address",
          "name": "",
          "type": "address"
        }
      ],
      "stateMutability": "view",
      "type": "function",
      "constant": true
    },
    {
      "inputs": [],
      "name": "fundsReceived",
      "outputs": [
        {
          "internalType": "bool",
          "name": "",
          "type": "bool"
        }
      ],
      "stateMutability": "view",
      "type": "function",
      "constant": true
    },
    {
      "inputs": [],
      "name": "recipient",
      "outputs": [
        {
          "internalType": "address",
          "name": "",
          "type": "address"
        }
      ],
      "stateMutability": "view",
      "type": "function",
      "constant": true
    },
    {
      "inputs": [],
      "name": "sender",
      "outputs": [
        {
          "internalType": "address",
          "name": "",
          "type": "address"
        }
      ],
      "stateMutability": "view",
      "type": "function",
      "constant": true
    },
    {
      "inputs": [],
      "name": "value",
      "outputs": [
        {
          "internalType": "uint256",
          "name": "",
          "type": "uint256"
        }
      ],
      "stateMutability": "view",
      "type": "function",
      "constant": true
    },
    {
      "inputs": [
        {
          "internalType": "address",
          "name": "_recipient",
          "type": "address"
        }
      ],
      "name": "receiveFunds",
      "outputs": [],
      "stateMutability": "payable",
      "type": "function",
      "payable": true
    },
    {
      "inputs": [],
      "name": "verifyFundsReceived",
      "outputs": [
        {
          "internalType": "bool",
          "name": "",
          "type": "bool"
        }
      ],
      "stateMutability": "view",
      "type": "function",
      "constant": true
    },
    {
      "inputs": [],
      "name": "transferContract",
      "outputs": [],
      "stateMutability": "payable",
      "type": "function",
      "payable": true
    },
    {
      "inputs": [
        {
          "internalType": "address",
          "name": "_recipient",
          "type": "address"
        },
        {
          "internalType": "uint256",
          "name": "_amount",
          "type": "uint256"
        }
      ],
      "name": "sendEther",
      "outputs": [],
      "stateMutability": "nonpayable",
      "type": "function"
    }
  ],
  "bytecode": "0x608060405234801561001057600080fd5b50336000806101000a81548173ffffffffffffffffffffffffffffffffffffffff021916908373ffffffffffffffffffffffffffffffffffffffff1602179055506108e2806100606000396000f3fe6080604052600436106100865760003560e01c80637bc39341116100595780637bc39341146101375780639c69117c14610141578063c1756a2c1461016c578063c4c420c514610195578063df8926c6146101c057610086565b806311318b331461008b5780633fa4f245146100b657806366d003ac146100e157806367e404ce1461010c575b600080fd5b34801561009757600080fd5b506100a06101dc565b6040516100ad9190610576565b60405180910390f35b3480156100c257600080fd5b506100cb6101ef565b6040516100d891906105aa565b60405180910390f35b3480156100ed57600080fd5b506100f66101f5565b6040516101039190610606565b60405180910390f35b34801561011857600080fd5b5061012161021b565b60405161012e9190610606565b60405180910390f35b61013f610241565b005b34801561014d57600080fd5b50610156610243565b6040516101639190610606565b60405180910390f35b34801561017857600080fd5b50610193600480360381019061018e919061067e565b610267565b005b3480156101a157600080fd5b506101aa610383565b6040516101b79190610576565b60405180910390f35b6101da60048036038101906101d591906106be565b61039a565b005b600460009054906101000a900460ff1681565b60035481565b600260009054906101000a900473ffffffffffffffffffffffffffffffffffffffff1681565b600160009054906101000a900473ffffffffffffffffffffffffffffffffffffffff1681565b565b60008054906101000a900473ffffffffffffffffffffffffffffffffffffffff1681565b60008054906101000a900473ffffffffffffffffffffffffffffffffffffffff1673ffffffffffffffffffffffffffffffffffffffff163373ffffffffffffffffffffffffffffffffffffffff16146102f5576040517f08c379a00000000000000000000000000000000000000000000000000000000081526004016102ec90610748565b60405180910390fd5b80471015610338576040517f08c379a000000000000000000000000000000000000000000000000000000000815260040161032f906107b4565b60405180910390fd5b8173ffffffffffffffffffffffffffffffffffffffff166108fc829081150290604051600060405180830381858888f1935050505015801561037e573d6000803e3d6000fd5b505050565b6000600460009054906101000a900460ff16905090565b600034116103dd576040517f08c379a00000000000000000000000000000000000000000000000000000000081526004016103d490610820565b60405180910390fd5b600073ffffffffffffffffffffffffffffffffffffffff168173ffffffffffffffffffffffffffffffffffffffff16141561044d576040517f08c379a00000000000000000000000000000000000000000000000000000000081526004016104449061088c565b60405180910390fd5b3460038190555033600160006101000a81548173ffffffffffffffffffffffffffffffffffffffff021916908373ffffffffffffffffffffffffffffffffffffffff16021790555080600260006101000a81548173ffffffffffffffffffffffffffffffffffffffff021916908373ffffffffffffffffffffffffffffffffffffffff16021790555060008054906101000a900473ffffffffffffffffffffffffffffffffffffffff1673ffffffffffffffffffffffffffffffffffffffff166108fc349081150290604051600060405180830381858888f1935050505015801561053c573d6000803e3d6000fd5b506001600460006101000a81548160ff02191690831515021790555050565b60008115159050919050565b6105708161055b565b82525050565b600060208201905061058b6000830184610567565b92915050565b6000819050919050565b6105a481610591565b82525050565b60006020820190506105bf600083018461059b565b92915050565b600073ffffffffffffffffffffffffffffffffffffffff82169050919050565b60006105f0826105c5565b9050919050565b610600816105e5565b82525050565b600060208201905061061b60008301846105f7565b92915050565b600080fd5b61062f816105e5565b811461063a57600080fd5b50565b60008135905061064c81610626565b92915050565b61065b81610591565b811461066657600080fd5b50565b60008135905061067881610652565b92915050565b6000806040838503121561069557610694610621565b5b60006106a38582860161063d565b92505060206106b485828601610669565b9150509250929050565b6000602082840312156106d4576106d3610621565b5b60006106e28482850161063d565b91505092915050565b600082825260208201905092915050565b7f556e617574686f72697a65640000000000000000000000000000000000000000600082015250565b6000610732600c836106eb565b915061073d826106fc565b602082019050919050565b6000602082019050818103600083015261076181610725565b9050919050565b7f496e73756666696369656e742062616c616e636520696e20636f6e7472616374600082015250565b600061079e6020836106eb565b91506107a982610768565b602082019050919050565b600060208201905081810360008301526107cd81610791565b9050919050565b7f56616c7565206d7573742062652067726561746572207468616e203000000000600082015250565b600061080a601c836106eb565b9150610815826107d4565b602082019050919050565b60006020820190508181036000830152610839816107fd565b9050919050565b7f496e76616c696420726563697069656e74206164647265737300000000000000600082015250565b60006108766019836106eb565b915061088182610840565b602082019050919050565b600060208201905081810360008301526108a581610869565b905091905056fea264697066735822122053ef33564bb87777be350b2c442c4a9248b4f0c9a600c0f3b3b4be40163e15f864736f6c634300080b0033",
  "immutableReferences": {},
  "source": "// SPDX-License-Identifier: MIT\npragma solidity ^0.8.7;\n\ncontract Notary{\n\n    address public accountNotary; // Conta na blockchain do notrio\n    address public sender; // Conta que enviou na Blockchain A\n    address public recipient; // Conta destino na blockchain B\n    uint256 public value; // Valor a ser transferido\n    bool public fundsReceived;\n\n    constructor(){\n        accountNotary = msg.sender;\n    }\n\n    function receiveFunds(address _recipient) public payable {\n        require(msg.value > 0, \"Value must be greater than 0\");\n        require(_recipient != address(0), \"Invalid recipient address\");\n\n        value = msg.value;\n        sender = msg.sender;\n        recipient = _recipient;\n\n        payable(accountNotary).transfer(msg.value);\n        //require(success, \"Transfer failed\");\n\n        fundsReceived = true;\n    }\n\n     function verifyFundsReceived() public view returns(bool) {\n        return fundsReceived;\n    }\n\n    function transferContract() public payable {\n\n    }   \n\n    function sendEther(address _recipient, uint256 _amount) public {\n        // Verifica se o chamador da funo  o proprietrio do contrato\n        require(msg.sender == accountNotary, \"Unauthorized\");\n\n        // Transfere Ether para o destinatrio especificado\n        require(address(this).balance >= _amount, \"Insufficient balance in contract\");\n        payable(_recipient).transfer(_amount);\n    }\n}\n\n//.......Migrar os contratos nas blockchains........\n// truffle migrate --network blockchainA --reset \n// truffle migrate --network blockchainB --reset\n//..................................................\n\n//............Interagir com os contratos.............\n//  truffle console --network blockchainA\n//  truffle console --network blockchainB\n//...................................................\n\n//............BLOCKCHAIN A..........................\n//  let notary = await Notary.deployed()\n//  let contas = await web3.eth.getAccounts()\n//  notary.receiveFunds(\"0xf1318EA025Ea1Aa9D9B35DfF384F799695231Df4\", {value: 10000000000000000000, from: contas[1]})\n//...................................................\n\n//............BLOCKCHAIN B..........................\n//  let notary = await Notary.deployed()\n//  let contas = await web3.eth.getAccounts()\n//  notary.transferContract({value: 10000000000000000000, from: \"0x585921d3Affc653D398D49b3ec72ab6D25d67021\"})\n//  web3.eth.getBalance(notary.address)   --> saldo do contrato\n\n//  const valor = web3.utils.toWei('10', 'ether')\n//  notary.sendEther(\"0x958BAF8542B7A03476a50b259C47960900313e21\", valor)",
  "sourcePath": "/home/itallo/Documentos/Meus-Projetos/Notary-Mechanism/contracts/Notary.sol",
  "compiler": {
    "name": "solc",
    "version": "0.8.11+commit.d7f03943.Emscripten.clang"
  },
  "schemaVersion": "3.4.4",
  "updatedAt": "2024-01-10T17:03:26.603Z",
  "networkType": "ethereum",
  "devdoc": {
    "kind": "dev",
    "methods": {},
    "version": 1
  },
  "userdoc": {
    "kind": "user",
    "methods": {},
    "version": 1
  }
}